{
  "contractName": "futfund",
  "abi": [
    {
      "inputs": [
        {
          "internalType": "address",
          "name": "_admin",
          "type": "address"
        }
      ],
      "stateMutability": "nonpayable",
      "type": "constructor"
    },
    {
      "anonymous": false,
      "inputs": [
        {
          "components": [
            {
              "internalType": "string",
              "name": "name",
              "type": "string"
            },
            {
              "internalType": "uint256",
              "name": "expectedAmt",
              "type": "uint256"
            },
            {
              "internalType": "uint256",
              "name": "realizeAmt",
              "type": "uint256"
            },
            {
              "internalType": "uint256",
              "name": "startDate",
              "type": "uint256"
            },
            {
              "internalType": "uint256",
              "name": "endDate",
              "type": "uint256"
            }
          ],
          "indexed": false,
          "internalType": "struct futfund.Project",
          "name": "projects",
          "type": "tuple"
        },
        {
          "indexed": false,
          "internalType": "address",
          "name": "donor",
          "type": "address"
        },
        {
          "indexed": false,
          "internalType": "uint256",
          "name": "amount",
          "type": "uint256"
        }
      ],
      "name": "newDonation",
      "type": "event"
    },
    {
      "inputs": [
        {
          "internalType": "string",
          "name": "_name",
          "type": "string"
        },
        {
          "internalType": "uint256",
          "name": "_expectedAmt",
          "type": "uint256"
        },
        {
          "internalType": "uint256",
          "name": "_startDate",
          "type": "uint256"
        },
        {
          "internalType": "uint256",
          "name": "_endDate",
          "type": "uint256"
        }
      ],
      "name": "createProject",
      "outputs": [
        {
          "internalType": "string",
          "name": "",
          "type": "string"
        },
        {
          "internalType": "uint256",
          "name": "",
          "type": "uint256"
        },
        {
          "internalType": "uint256",
          "name": "",
          "type": "uint256"
        }
      ],
      "stateMutability": "nonpayable",
      "type": "function"
    },
    {
      "inputs": [],
      "name": "getProjects",
      "outputs": [
        {
          "components": [
            {
              "internalType": "string",
              "name": "name",
              "type": "string"
            },
            {
              "internalType": "uint256",
              "name": "expectedAmt",
              "type": "uint256"
            },
            {
              "internalType": "uint256",
              "name": "realizeAmt",
              "type": "uint256"
            },
            {
              "internalType": "uint256",
              "name": "startDate",
              "type": "uint256"
            },
            {
              "internalType": "uint256",
              "name": "endDate",
              "type": "uint256"
            }
          ],
          "internalType": "struct futfund.Project[]",
          "name": "",
          "type": "tuple[]"
        }
      ],
      "stateMutability": "view",
      "type": "function",
      "constant": true
    },
    {
      "inputs": [
        {
          "internalType": "uint256",
          "name": "_index",
          "type": "uint256"
        }
      ],
      "name": "createDonation",
      "outputs": [],
      "stateMutability": "payable",
      "type": "function",
      "payable": true
    },
    {
      "inputs": [],
      "name": "getMyDonations",
      "outputs": [
        {
          "components": [
            {
              "internalType": "uint256",
              "name": "projectIndex",
              "type": "uint256"
            },
            {
              "internalType": "uint256",
              "name": "amount",
              "type": "uint256"
            }
          ],
          "internalType": "struct futfund.Donation[]",
          "name": "",
          "type": "tuple[]"
        }
      ],
      "stateMutability": "view",
      "type": "function",
      "constant": true
    },
    {
      "inputs": [
        {
          "internalType": "uint256",
          "name": "_index",
          "type": "uint256"
        }
      ],
      "name": "updateDonation",
      "outputs": [],
      "stateMutability": "payable",
      "type": "function",
      "payable": true
    },
    {
      "inputs": [],
      "name": "getAdminAddress",
      "outputs": [
        {
          "internalType": "address",
          "name": "",
          "type": "address"
        }
      ],
      "stateMutability": "view",
      "type": "function",
      "constant": true
    }
  ],
  "bytecode": "0x60806040523480156200001157600080fd5b50604051620018ea380380620018ea833981810160405281019062000037919062000095565b806000806101000a81548173ffffffffffffffffffffffffffffffffffffffff021916908373ffffffffffffffffffffffffffffffffffffffff160217905550506200010f565b6000815190506200008f81620000f5565b92915050565b600060208284031215620000a857600080fd5b6000620000b8848285016200007e565b91505092915050565b6000620000ce82620000d5565b9050919050565b600073ffffffffffffffffffffffffffffffffffffffff82169050919050565b6200010081620000c1565b81146200010c57600080fd5b50565b6117cb806200011f6000396000f3fe6080604052600436106100555760003560e01c8063610a6a2a1461005a57806390e4a13014610099578063b2e6b912146100c4578063dcc60128146100ef578063edb560ea1461011a578063f51f263314610136575b600080fd5b34801561006657600080fd5b50610081600480360381019061007c9190610dc2565b610152565b60405161009093929190611271565b60405180910390f35b3480156100a557600080fd5b506100ae610261565b6040516100bb919061122d565b60405180910390f35b3480156100d057600080fd5b506100d9610311565b6040516100e69190611212565b60405180910390f35b3480156100fb57600080fd5b5061010461033a565b604051610111919061124f565b60405180910390f35b610134600480360381019061012f9190610e3d565b610453565b005b610150600480360381019061014b9190610e3d565b61087c565b005b606060008061015f610c59565b6000429050888260000181905250878260200181815250506000826040018181525050600087141561019157806101ac565b62015180876101a0919061148d565b816101ab9190611437565b5b82606001818152505062015180866101c4919061148d565b816101cf9190611437565b82608001818152505060018290806001815401808255809150506001900390600052602060002090600502016000909190919091506000820151816000019080519060200190610220929190610c88565b506020820151816001015560408201518160020155606082015181600301556080820151816004015550508888600094509450945050509450945094915050565b6060600260003373ffffffffffffffffffffffffffffffffffffffff1673ffffffffffffffffffffffffffffffffffffffff168152602001908152602001600020805480602002602001604051908101604052809291908181526020016000905b82821015610308578382906000526020600020906002020160405180604001604052908160008201548152602001600182015481525050815260200190600101906102c2565b50505050905090565b60008060009054906101000a900473ffffffffffffffffffffffffffffffffffffffff16905090565b60606001805480602002602001604051908101604052809291908181526020016000905b8282101561044a57838290600052602060002090600502016040518060a00160405290816000820180546103919061156f565b80601f01602080910402602001604051908101604052809291908181526020018280546103bd9061156f565b801561040a5780601f106103df5761010080835404028352916020019161040a565b820191906000526020600020905b8154815290600101906020018083116103ed57829003601f168201915b505050505081526020016001820154815260200160028201548152602001600382015481526020016004820154815250508152602001906001019061035e565b50505050905090565b66038d7ea4c6800034101561049d576040517f08c379a0000000000000000000000000000000000000000000000000000000008152600401610494906112af565b60405180910390fd5b80600181815481106104d8577f4e487b7100000000000000000000000000000000000000000000000000000000600052603260045260246000fd5b90600052602060002090600502016003015442108061054157506001818154811061052c577f4e487b7100000000000000000000000000000000000000000000000000000000600052603260045260246000fd5b90600052602060002090600502016004015442115b15610581576040517f08c379a0000000000000000000000000000000000000000000000000000000008152600401610578906112cf565b60405180910390fd5b6000600260003373ffffffffffffffffffffffffffffffffffffffff1673ffffffffffffffffffffffffffffffffffffffff168152602001908152602001600020805480602002602001604051908101604052809291908181526020016000905b82821015610628578382906000526020600020906002020160405180604001604052908160008201548152602001600182015481525050815260200190600101906105e2565b50505050905060005b81518110156107f45783828281518110610674577f4e487b7100000000000000000000000000000000000000000000000000000000600052603260045260246000fd5b60200260200101516000015114156107e15734600185815481106106c1577f4e487b7100000000000000000000000000000000000000000000000000000000600052603260045260246000fd5b906000526020600020906005020160020160008282546106e19190611437565b9250508190555034828281518110610722577f4e487b7100000000000000000000000000000000000000000000000000000000600052603260045260246000fd5b602002602001015160200181815161073a9190611437565b9150818152505034600260003373ffffffffffffffffffffffffffffffffffffffff1673ffffffffffffffffffffffffffffffffffffffff16815260200190815260200160002082815481106107b9577f4e487b7100000000000000000000000000000000000000000000000000000000600052603260045260246000fd5b906000526020600020906002020160010160008282546107d99190611437565b925050819055505b80806107ec906115ec565b915050610631565b507f9fac258505702c08dc4548d6aff5fa54ae07a180c941cf252884bf9a6286bb1460018481548110610850577f4e487b7100000000000000000000000000000000000000000000000000000000600052603260045260246000fd5b9060005260206000209060050201333460405161086f939291906112ef565b60405180910390a1505050565b66038d7ea4c680003410156108c6576040517f08c379a00000000000000000000000000000000000000000000000000000000081526004016108bd906112af565b60405180910390fd5b8060018181548110610901577f4e487b7100000000000000000000000000000000000000000000000000000000600052603260045260246000fd5b90600052602060002090600502016003015442108061096a575060018181548110610955577f4e487b7100000000000000000000000000000000000000000000000000000000600052603260045260246000fd5b90600052602060002090600502016004015442115b156109aa576040517f08c379a00000000000000000000000000000000000000000000000000000000081526004016109a1906112cf565b60405180910390fd5b6000600260003373ffffffffffffffffffffffffffffffffffffffff1673ffffffffffffffffffffffffffffffffffffffff168152602001908152602001600020805480602002602001604051908101604052809291908181526020016000905b82821015610a5157838290600052602060002090600202016040518060400160405290816000820154815260200160018201548152505081526020019060010190610a0b565b50505050905060005b8151811015610ad257818181518110610a9c577f4e487b7100000000000000000000000000000000000000000000000000000000600052603260045260246000fd5b602002602001015160000151841415610abf57610ab884610453565b5050610c55565b8080610aca906115ec565b915050610a5a565b50610adb610d0e565b83816000018181525050348160200181815250503460018581548110610b2a577f4e487b7100000000000000000000000000000000000000000000000000000000600052603260045260246000fd5b90600052602060002090600502016002016000828254610b4a9190611437565b92505081905550600260003373ffffffffffffffffffffffffffffffffffffffff1673ffffffffffffffffffffffffffffffffffffffff168152602001908152602001600020819080600181540180825580915050600190039060005260206000209060020201600090919091909150600082015181600001556020820151816001015550507f9fac258505702c08dc4548d6aff5fa54ae07a180c941cf252884bf9a6286bb1460018581548110610c2b577f4e487b7100000000000000000000000000000000000000000000000000000000600052603260045260246000fd5b90600052602060002090600502013334604051610c4a939291906112ef565b60405180910390a150505b5050565b6040518060a0016040528060608152602001600081526020016000815260200160008152602001600081525090565b828054610c949061156f565b90600052602060002090601f016020900481019282610cb65760008555610cfd565b82601f10610ccf57805160ff1916838001178555610cfd565b82800160010185558215610cfd579182015b82811115610cfc578251825591602001919060010190610ce1565b5b509050610d0a9190610d28565b5090565b604051806040016040528060008152602001600081525090565b5b80821115610d41576000816000905550600101610d29565b5090565b6000610d58610d5384611352565b61132d565b905082815260208101848484011115610d7057600080fd5b610d7b84828561152d565b509392505050565b600082601f830112610d9457600080fd5b8135610da4848260208601610d45565b91505092915050565b600081359050610dbc8161177e565b92915050565b60008060008060808587031215610dd857600080fd5b600085013567ffffffffffffffff811115610df257600080fd5b610dfe87828801610d83565b9450506020610e0f87828801610dad565b9350506040610e2087828801610dad565b9250506060610e3187828801610dad565b91505092959194509250565b600060208284031215610e4f57600080fd5b6000610e5d84828501610dad565b91505092915050565b6000610e7283836110ac565b60408301905092915050565b6000610e8a83836110db565b905092915050565b610e9b816114f1565b82525050565b6000610eac826113b8565b610eb681856113f3565b9350610ec183611383565b8060005b83811015610ef2578151610ed98882610e66565b9750610ee4836113d9565b925050600181019050610ec5565b5085935050505092915050565b6000610f0a826113c3565b610f148185611404565b935083602082028501610f2685611393565b8060005b85811015610f625784840389528151610f438582610e7e565b9450610f4e836113e6565b925060208a01995050600181019050610f2a565b50829750879550505050505092915050565b6000610f7f826113ce565b610f898185611415565b9350610f9981856020860161153c565b610fa2816116c2565b840191505092915050565b6000610fb8826113ce565b610fc28185611426565b9350610fd281856020860161153c565b610fdb816116c2565b840191505092915050565b60008154610ff38161156f565b610ffd8186611415565b94506001821660008114611018576001811461102a5761105d565b60ff198316865260208601935061105d565b611033856113a3565b60005b8381101561105557815481890152600182019150602081019050611036565b808801955050505b50505092915050565b6000611073602283611426565b915061107e826116e0565b604082019050919050565b6000611096602883611426565b91506110a18261172f565b604082019050919050565b6040820160008201516110c260008501826111f4565b5060208201516110d560208501826111f4565b50505050565b600060a08301600083015184820360008601526110f88282610f74565b915050602083015161110d60208601826111f4565b50604083015161112060408601826111f4565b50606083015161113360608601826111f4565b50608083015161114660808601826111f4565b508091505092915050565b600060a083016000808401858303600087015261116e8382610fe6565b92505060018401549050611181816115a1565b61118e60208701826111f4565b506002840154905061119f816115a1565b6111ac60408701826111f4565b50600384015490506111bd816115a1565b6111ca60608701826111f4565b50600484015490506111db816115a1565b6111e860808701826111f4565b50819250505092915050565b6111fd81611523565b82525050565b61120c81611523565b82525050565b60006020820190506112276000830184610e92565b92915050565b600060208201905081810360008301526112478184610ea1565b905092915050565b600060208201905081810360008301526112698184610eff565b905092915050565b6000606082019050818103600083015261128b8186610fad565b905061129a6020830185611203565b6112a76040830184611203565b949350505050565b600060208201905081810360008301526112c881611066565b9050919050565b600060208201905081810360008301526112e881611089565b9050919050565b600060608201905081810360008301526113098186611151565b90506113186020830185610e92565b6113256040830184611203565b949350505050565b6000611337611348565b905061134382826115bb565b919050565b6000604051905090565b600067ffffffffffffffff82111561136d5761136c611693565b5b611376826116c2565b9050602081019050919050565b6000819050602082019050919050565b6000819050602082019050919050565b60008190508160005260206000209050919050565b600081519050919050565b600081519050919050565b600081519050919050565b6000602082019050919050565b6000602082019050919050565b600082825260208201905092915050565b600082825260208201905092915050565b600082825260208201905092915050565b600082825260208201905092915050565b600061144282611523565b915061144d83611523565b9250827fffffffffffffffffffffffffffffffffffffffffffffffffffffffffffffffff0382111561148257611481611635565b5b828201905092915050565b600061149882611523565b91506114a383611523565b9250817fffffffffffffffffffffffffffffffffffffffffffffffffffffffffffffffff04831182151516156114dc576114db611635565b5b828202905092915050565b6000819050919050565b60006114fc82611503565b9050919050565b600073ffffffffffffffffffffffffffffffffffffffff82169050919050565b6000819050919050565b82818337600083830152505050565b60005b8381101561155a57808201518184015260208101905061153f565b83811115611569576000848401525b50505050565b6000600282049050600182168061158757607f821691505b6020821081141561159b5761159a611664565b5b50919050565b60006115b46115af836116d3565b6114e7565b9050919050565b6115c4826116c2565b810181811067ffffffffffffffff821117156115e3576115e2611693565b5b80604052505050565b60006115f782611523565b91507fffffffffffffffffffffffffffffffffffffffffffffffffffffffffffffffff82141561162a57611629611635565b5b600182019050919050565b7f4e487b7100000000000000000000000000000000000000000000000000000000600052601160045260246000fd5b7f4e487b7100000000000000000000000000000000000000000000000000000000600052602260045260246000fd5b7f4e487b7100000000000000000000000000000000000000000000000000000000600052604160045260246000fd5b6000601f19601f8301169050919050565b60008160001c9050919050565b7f56616c7565206d757374206265206d696e696d756d20302e303031206574686560008201527f7273000000000000000000000000000000000000000000000000000000000000602082015250565b7f43726f776466756e64696e6720686173206e6f742073746172746564206f722060008201527f6861732070617374000000000000000000000000000000000000000000000000602082015250565b61178781611523565b811461179257600080fd5b5056fea2646970667358221220e581910ceb3c612d495d13bcbd62c2b67614368b0cb787c61fc9b286aba383f864736f6c63430008040033",
  "immutableReferences": {},
  "source": "// SPDX-License-Identifier: MIT\npragma solidity ^0.8.4;\n\n\ncontract futfund {\n    \n    constructor(address _admin) {\n        admin = _admin;\n    }\n\n    address private admin;\n    struct Project {\n        string name;\n        uint expectedAmt;\n        uint realizeAmt;\n        uint startDate;\n        uint endDate;\n    }\n\n    struct Donation {\n        uint projectIndex;\n        uint amount;\n    }\n\n    event newDonation(Project projects, address donor, uint amount);\n\n    Project[] projects;\n    mapping(address => Donation[]) userDonations;\n\n    modifier greaterThanZero() {\n        if(msg.value < 1000000000000000) {           \n            revert(\"Value must be minimum 0.001 ethers\");\n        }else {\n            _;\n        }\n    }\n\n    modifier ended(uint _index) {\n        if(block.timestamp < projects[_index].startDate || block.timestamp > projects[_index].endDate){\n            revert(\"Crowdfunding has not started or has past\");\n        }else {\n            _;\n        }\n    }\n\n    function createProject(string memory _name, uint _expectedAmt, uint _startDate, uint _endDate) public returns(string memory, uint, uint){\n        Project memory project;\n        uint time = block.timestamp;\n\n        project.name = _name;\n        project.expectedAmt = _expectedAmt;\n        project.realizeAmt = 0;\n        project.startDate = _startDate != 0 ? time + _startDate * 1 days : time;\n        project.endDate = time + _endDate * 1 days;\n        projects.push(project);\n        return (_name, _expectedAmt, 0);\n    }\n\n    function getProjects() public view returns(Project[] memory){\n        return projects;\n    }\n\n    function createDonation(uint _index) public greaterThanZero ended(_index) payable {\n        \n        // checkIfUserHasDonated(_index);\n        Donation[] memory donations = userDonations[msg.sender];\n        for(uint i; i<donations.length; i++) {\n            if(_index == donations[i].projectIndex) {\n                updateDonation(_index);\n                return;\n            }\n        }\n\n        Donation memory donation;\n        donation.projectIndex = _index;\n        donation.amount = msg.value;\n        projects[_index].realizeAmt += msg.value;\n        userDonations[msg.sender].push(donation);\n\n        emit newDonation(projects[_index], msg.sender, msg.value);\n    }\n\n    function getMyDonations() public view returns (Donation[] memory) {\n        return userDonations[msg.sender];\n    }\n\n    function updateDonation(uint _index) public greaterThanZero ended(_index) payable {\n        Donation[] memory donations = userDonations[msg.sender];\n        for(uint i; i<donations.length; i++) {\n            if(donations[i].projectIndex == _index) {\n                projects[_index].realizeAmt += msg.value;\n                donations[i].amount += msg.value;\n                userDonations[msg.sender][i].amount += msg.value;\n            }\n        }\n        emit newDonation(projects[_index], msg.sender, msg.value);\n    }\n\n    function getAdminAddress() public view returns(address) {\n        return admin;\n    }\n\n}",
  "sourcePath": "/home/sally-nwamama/Desktop/futfund/contracts/futfund.sol",
  "compiler": {
    "name": "solc",
    "version": "0.8.4+commit.c7e474f2.Emscripten.clang"
  },
  "schemaVersion": "3.4.7",
  "updatedAt": "2022-12-13T21:44:13.318Z",
  "networkType": "ethereum",
  "devdoc": {
    "kind": "dev",
    "methods": {},
    "version": 1
  },
  "userdoc": {
    "kind": "user",
    "methods": {},
    "version": 1
  }
}