{
  "contractName": "base",
  "abi": [
    {
      "inputs": [
        {
          "internalType": "string",
          "name": "_name",
          "type": "string"
        },
        {
          "internalType": "uint256",
          "name": "_expectedAmt",
          "type": "uint256"
        },
        {
          "internalType": "uint256",
          "name": "_startDate",
          "type": "uint256"
        },
        {
          "internalType": "uint256",
          "name": "_endDate",
          "type": "uint256"
        }
      ],
      "name": "createProject",
      "outputs": [
        {
          "internalType": "string",
          "name": "",
          "type": "string"
        },
        {
          "internalType": "uint256",
          "name": "",
          "type": "uint256"
        },
        {
          "internalType": "uint256",
          "name": "",
          "type": "uint256"
        }
      ],
      "stateMutability": "nonpayable",
      "type": "function"
    },
    {
      "inputs": [],
      "name": "getProjects",
      "outputs": [
        {
          "components": [
            {
              "internalType": "string",
              "name": "name",
              "type": "string"
            },
            {
              "internalType": "uint256",
              "name": "expectedAmt",
              "type": "uint256"
            },
            {
              "internalType": "uint256",
              "name": "realizeAmt",
              "type": "uint256"
            },
            {
              "internalType": "uint256",
              "name": "startDate",
              "type": "uint256"
            },
            {
              "internalType": "uint256",
              "name": "endDate",
              "type": "uint256"
            }
          ],
          "internalType": "struct base.Project[]",
          "name": "",
          "type": "tuple[]"
        }
      ],
      "stateMutability": "view",
      "type": "function",
      "constant": true
    },
    {
      "inputs": [
        {
          "internalType": "uint256",
          "name": "_index",
          "type": "uint256"
        }
      ],
      "name": "createDonation",
      "outputs": [],
      "stateMutability": "payable",
      "type": "function",
      "payable": true
    },
    {
      "inputs": [],
      "name": "getMyDonations",
      "outputs": [
        {
          "components": [
            {
              "internalType": "uint256",
              "name": "projectIndex",
              "type": "uint256"
            },
            {
              "internalType": "uint256",
              "name": "amount",
              "type": "uint256"
            }
          ],
          "internalType": "struct base.Donation[]",
          "name": "",
          "type": "tuple[]"
        }
      ],
      "stateMutability": "view",
      "type": "function",
      "constant": true
    },
    {
      "inputs": [
        {
          "internalType": "uint256",
          "name": "_index",
          "type": "uint256"
        }
      ],
      "name": "updateDonation",
      "outputs": [],
      "stateMutability": "payable",
      "type": "function",
      "payable": true
    }
  ],
  "bytecode": "0x608060405234801561001057600080fd5b50611359806100206000396000f3fe60806040526004361061004a5760003560e01c8063610a6a2a1461004f57806390e4a1301461008e578063dcc60128146100b9578063edb560ea146100e4578063f51f263314610100575b600080fd5b34801561005b57600080fd5b5061007660048036038101906100719190610be5565b61011c565b60405161008593929190610f24565b60405180910390f35b34801561009a57600080fd5b506100a361022b565b6040516100b09190610ee0565b60405180910390f35b3480156100c557600080fd5b506100ce6102db565b6040516100db9190610f02565b60405180910390f35b6100fe60048036038101906100f99190610c60565b6103f4565b005b61011a60048036038101906101159190610c60565b61075e565b005b6060600080610129610a7c565b6000429050888260000181905250878260200181815250506000826040018181525050600087141561015b5780610176565b620151808761016a91906110cd565b816101759190611077565b5b826060018181525050620151808661018e91906110cd565b816101999190611077565b826080018181525050600082908060018154018082558091505060019003906000526020600020906005020160009091909190915060008201518160000190805190602001906101ea929190610aab565b506020820151816001015560408201518160020155606082015181600301556080820151816004015550508888600094509450945050509450945094915050565b6060600160003373ffffffffffffffffffffffffffffffffffffffff1673ffffffffffffffffffffffffffffffffffffffff168152602001908152602001600020805480602002602001604051908101604052809291908181526020016000905b828210156102d25783829060005260206000209060020201604051806040016040529081600082015481526020016001820154815250508152602001906001019061028c565b50505050905090565b60606000805480602002602001604051908101604052809291908181526020016000905b828210156103eb57838290600052602060002090600502016040518060a001604052908160008201805461033290611173565b80601f016020809104026020016040519081016040528092919081815260200182805461035e90611173565b80156103ab5780601f10610380576101008083540402835291602001916103ab565b820191906000526020600020905b81548152906001019060200180831161038e57829003601f168201915b50505050508152602001600182015481526020016002820154815260200160038201548152602001600482015481525050815260200190600101906102ff565b50505050905090565b6000341161040157600080fd5b806000818154811061043c577f4e487b7100000000000000000000000000000000000000000000000000000000600052603260045260246000fd5b9060005260206000209060050201600301544210806104a5575060008181548110610490577f4e487b7100000000000000000000000000000000000000000000000000000000600052603260045260246000fd5b90600052602060002090600502016004015442115b156104e5576040517f08c379a00000000000000000000000000000000000000000000000000000000081526004016104dc90610f62565b60405180910390fd5b6000600160003373ffffffffffffffffffffffffffffffffffffffff1673ffffffffffffffffffffffffffffffffffffffff168152602001908152602001600020805480602002602001604051908101604052809291908181526020016000905b8282101561058c57838290600052602060002090600202016040518060400160405290816000820154815260200160018201548152505081526020019060010190610546565b50505050905060005b815181101561075857838282815181106105d8577f4e487b7100000000000000000000000000000000000000000000000000000000600052603260045260246000fd5b6020026020010151600001511415610745573460008581548110610625577f4e487b7100000000000000000000000000000000000000000000000000000000600052603260045260246000fd5b906000526020600020906005020160020160008282546106459190611077565b9250508190555034828281518110610686577f4e487b7100000000000000000000000000000000000000000000000000000000600052603260045260246000fd5b602002602001015160200181815161069e9190611077565b9150818152505034600160003373ffffffffffffffffffffffffffffffffffffffff1673ffffffffffffffffffffffffffffffffffffffff168152602001908152602001600020828154811061071d577f4e487b7100000000000000000000000000000000000000000000000000000000600052603260045260246000fd5b9060005260206000209060020201600101600082825461073d9190611077565b925050819055505b8080610750906111d6565b915050610595565b50505050565b6000341161076b57600080fd5b80600081815481106107a6577f4e487b7100000000000000000000000000000000000000000000000000000000600052603260045260246000fd5b90600052602060002090600502016003015442108061080f5750600081815481106107fa577f4e487b7100000000000000000000000000000000000000000000000000000000600052603260045260246000fd5b90600052602060002090600502016004015442115b1561084f576040517f08c379a000000000000000000000000000000000000000000000000000000000815260040161084690610f62565b60405180910390fd5b6000600160003373ffffffffffffffffffffffffffffffffffffffff1673ffffffffffffffffffffffffffffffffffffffff168152602001908152602001600020805480602002602001604051908101604052809291908181526020016000905b828210156108f6578382906000526020600020906002020160405180604001604052908160008201548152602001600182015481525050815260200190600101906108b0565b50505050905060005b815181101561097757818181518110610941577f4e487b7100000000000000000000000000000000000000000000000000000000600052603260045260246000fd5b6020026020010151600001518414156109645761095d846103f4565b5050610a78565b808061096f906111d6565b9150506108ff565b50610980610b31565b838160000181815250503481602001818152505034600085815481106109cf577f4e487b7100000000000000000000000000000000000000000000000000000000600052603260045260246000fd5b906000526020600020906005020160020160008282546109ef9190611077565b92505081905550600160003373ffffffffffffffffffffffffffffffffffffffff1673ffffffffffffffffffffffffffffffffffffffff1681526020019081526020016000208190806001815401808255809150506001900390600052602060002090600202016000909190919091506000820151816000015560208201518160010155505050505b5050565b6040518060a0016040528060608152602001600081526020016000815260200160008152602001600081525090565b828054610ab790611173565b90600052602060002090601f016020900481019282610ad95760008555610b20565b82601f10610af257805160ff1916838001178555610b20565b82800160010185558215610b20579182015b82811115610b1f578251825591602001919060010190610b04565b5b509050610b2d9190610b4b565b5090565b604051806040016040528060008152602001600081525090565b5b80821115610b64576000816000905550600101610b4c565b5090565b6000610b7b610b7684610fa7565b610f82565b905082815260208101848484011115610b9357600080fd5b610b9e848285611131565b509392505050565b600082601f830112610bb757600080fd5b8135610bc7848260208601610b68565b91505092915050565b600081359050610bdf8161130c565b92915050565b60008060008060808587031215610bfb57600080fd5b600085013567ffffffffffffffff811115610c1557600080fd5b610c2187828801610ba6565b9450506020610c3287828801610bd0565b9350506040610c4387828801610bd0565b9250506060610c5487828801610bd0565b91505092959194509250565b600060208284031215610c7257600080fd5b6000610c8084828501610bd0565b91505092915050565b6000610c958383610e1d565b60408301905092915050565b6000610cad8383610e4c565b905092915050565b6000610cc082610ff8565b610cca8185611033565b9350610cd583610fd8565b8060005b83811015610d06578151610ced8882610c89565b9750610cf883611019565b925050600181019050610cd9565b5085935050505092915050565b6000610d1e82611003565b610d288185611044565b935083602082028501610d3a85610fe8565b8060005b85811015610d765784840389528151610d578582610ca1565b9450610d6283611026565b925060208a01995050600181019050610d3e565b50829750879550505050505092915050565b6000610d938261100e565b610d9d8185611055565b9350610dad818560208601611140565b610db6816112ac565b840191505092915050565b6000610dcc8261100e565b610dd68185611066565b9350610de6818560208601611140565b610def816112ac565b840191505092915050565b6000610e07602883611066565b9150610e12826112bd565b604082019050919050565b604082016000820151610e336000850182610ec2565b506020820151610e466020850182610ec2565b50505050565b600060a0830160008301518482036000860152610e698282610d88565b9150506020830151610e7e6020860182610ec2565b506040830151610e916040860182610ec2565b506060830151610ea46060860182610ec2565b506080830151610eb76080860182610ec2565b508091505092915050565b610ecb81611127565b82525050565b610eda81611127565b82525050565b60006020820190508181036000830152610efa8184610cb5565b905092915050565b60006020820190508181036000830152610f1c8184610d13565b905092915050565b60006060820190508181036000830152610f3e8186610dc1565b9050610f4d6020830185610ed1565b610f5a6040830184610ed1565b949350505050565b60006020820190508181036000830152610f7b81610dfa565b9050919050565b6000610f8c610f9d565b9050610f9882826111a5565b919050565b6000604051905090565b600067ffffffffffffffff821115610fc257610fc161127d565b5b610fcb826112ac565b9050602081019050919050565b6000819050602082019050919050565b6000819050602082019050919050565b600081519050919050565b600081519050919050565b600081519050919050565b6000602082019050919050565b6000602082019050919050565b600082825260208201905092915050565b600082825260208201905092915050565b600082825260208201905092915050565b600082825260208201905092915050565b600061108282611127565b915061108d83611127565b9250827fffffffffffffffffffffffffffffffffffffffffffffffffffffffffffffffff038211156110c2576110c161121f565b5b828201905092915050565b60006110d882611127565b91506110e383611127565b9250817fffffffffffffffffffffffffffffffffffffffffffffffffffffffffffffffff048311821515161561111c5761111b61121f565b5b828202905092915050565b6000819050919050565b82818337600083830152505050565b60005b8381101561115e578082015181840152602081019050611143565b8381111561116d576000848401525b50505050565b6000600282049050600182168061118b57607f821691505b6020821081141561119f5761119e61124e565b5b50919050565b6111ae826112ac565b810181811067ffffffffffffffff821117156111cd576111cc61127d565b5b80604052505050565b60006111e182611127565b91507fffffffffffffffffffffffffffffffffffffffffffffffffffffffffffffffff8214156112145761121361121f565b5b600182019050919050565b7f4e487b7100000000000000000000000000000000000000000000000000000000600052601160045260246000fd5b7f4e487b7100000000000000000000000000000000000000000000000000000000600052602260045260246000fd5b7f4e487b7100000000000000000000000000000000000000000000000000000000600052604160045260246000fd5b6000601f19601f8301169050919050565b7f43726f776466756e64696e6720686173206e6f742073746172746564206f722060008201527f6861732070617374000000000000000000000000000000000000000000000000602082015250565b61131581611127565b811461132057600080fd5b5056fea26469706673582212207ca27e5d22c37edcebb7cf10d4484843ebaf97b8b1c90020b3f432e3328ac97e64736f6c63430008040033",
  "immutableReferences": {},
  "source": "// SPDX-License-Identifier: MIT\npragma solidity ^0.8.4;\n\n\ncontract base {\n    struct Project {\n        string name;\n        uint expectedAmt;\n        uint realizeAmt;\n        uint startDate;\n        uint endDate;\n    }\n\n    struct Donation {\n        uint projectIndex;\n        uint amount;\n    }\n\n    Project[] projects;\n    mapping(address => Donation[]) userDonations;\n\n    modifier greaterThanZero() {\n        if(msg.value <= 0) {           \n            revert();\n        }else {\n            _;\n        }\n    }\n\n    modifier ended(uint _index) {\n        if(block.timestamp < projects[_index].startDate || block.timestamp > projects[_index].endDate){\n            revert(\"Crowdfunding has not started or has past\");\n        }else {\n            _;\n        }\n    }\n\n    function createProject(string memory _name, uint _expectedAmt, uint _startDate, uint _endDate) public returns(string memory, uint, uint){\n        Project memory project;\n        uint time = block.timestamp;\n\n        project.name = _name;\n        project.expectedAmt = _expectedAmt;\n        project.realizeAmt = 0;\n        project.startDate = _startDate != 0 ? time + _startDate * 1 days : time;\n        project.endDate = time + _endDate * 1 days;\n        projects.push(project);\n        return (_name, _expectedAmt, 0);\n    }\n\n    function getProjects() public view returns(Project[] memory){\n        return projects;\n    }\n\n    function createDonation(uint _index) public greaterThanZero ended(_index) payable {\n        \n        // checkIfUserHasDonated(_index);\n        Donation[] memory donations = userDonations[msg.sender];\n        for(uint i; i<donations.length; i++) {\n            if(_index == donations[i].projectIndex) {\n                updateDonation(_index);\n                return;\n            }\n        }\n\n        Donation memory donation;\n        donation.projectIndex = _index;\n        donation.amount = msg.value;\n        projects[_index].realizeAmt += msg.value;\n        userDonations[msg.sender].push(donation);\n    }\n\n    function getMyDonations() public view returns (Donation[] memory) {\n        return userDonations[msg.sender];\n    }\n\n    function updateDonation(uint _index) public greaterThanZero ended(_index) payable {\n        Donation[] memory donations = userDonations[msg.sender];\n        for(uint i; i<donations.length; i++) {\n            if(donations[i].projectIndex == _index) {\n                projects[_index].realizeAmt += msg.value;\n                donations[i].amount += msg.value;\n                userDonations[msg.sender][i].amount += msg.value;\n            }\n        }\n    }\n\n    // function checkIfUserHasDonated(uint _index)private {\n    //     Donation[] memory donations = userDonations[msg.sender];\n    //     for(uint i; i<donations.length; i++) {\n    //         if(_index == donations[i].projectIndex) {\n    //             updateDonation(_index);\n    //             return;\n    //         }\n    //     }\n    // }\n\n}",
  "sourcePath": "/home/sally-nwamama/Desktop/futfund/contracts/base.sol",
  "compiler": {
    "name": "solc",
    "version": "0.8.4+commit.c7e474f2.Emscripten.clang"
  },
  "schemaVersion": "3.4.7",
  "updatedAt": "2022-06-15T14:06:54.543Z",
  "networkType": "ethereum",
  "devdoc": {
    "kind": "dev",
    "methods": {},
    "version": 1
  },
  "userdoc": {
    "kind": "user",
    "methods": {},
    "version": 1
  }
}